{
  "address": "0xe7f1725E7734CE288F8367e1Bb143E90bb3F0512",
  "abi": [
    {
      "inputs": [
        {
          "internalType": "address",
          "name": "priceFeedAddress",
          "type": "address"
        }
      ],
      "stateMutability": "payable",
      "type": "constructor"
    },
    {
      "inputs": [],
      "name": "FundMe__NotOwner",
      "type": "error"
    },
    {
      "inputs": [],
      "name": "MINIMUM_USD",
      "outputs": [
        {
          "internalType": "uint256",
          "name": "",
          "type": "uint256"
        }
      ],
      "stateMutability": "view",
      "type": "function"
    },
    {
      "inputs": [
        {
          "internalType": "address",
          "name": "funder",
          "type": "address"
        }
      ],
      "name": "addressToAmountFunded",
      "outputs": [
        {
          "internalType": "uint256",
          "name": "",
          "type": "uint256"
        }
      ],
      "stateMutability": "view",
      "type": "function"
    },
    {
      "inputs": [],
      "name": "cheaperWithdrawal",
      "outputs": [],
      "stateMutability": "payable",
      "type": "function"
    },
    {
      "inputs": [],
      "name": "fund",
      "outputs": [],
      "stateMutability": "payable",
      "type": "function"
    },
    {
      "inputs": [
        {
          "internalType": "uint256",
          "name": "index",
          "type": "uint256"
        }
      ],
      "name": "funders",
      "outputs": [
        {
          "internalType": "address",
          "name": "",
          "type": "address"
        }
      ],
      "stateMutability": "view",
      "type": "function"
    },
    {
      "inputs": [],
      "name": "getOwner",
      "outputs": [
        {
          "internalType": "address",
          "name": "",
          "type": "address"
        }
      ],
      "stateMutability": "view",
      "type": "function"
    },
    {
      "inputs": [],
      "name": "priceFeed",
      "outputs": [
        {
          "internalType": "contract AggregatorV3Interface",
          "name": "",
          "type": "address"
        }
      ],
      "stateMutability": "view",
      "type": "function"
    },
    {
      "inputs": [],
      "name": "s_priceFeed",
      "outputs": [
        {
          "internalType": "contract AggregatorV3Interface",
          "name": "",
          "type": "address"
        }
      ],
      "stateMutability": "view",
      "type": "function"
    },
    {
      "inputs": [],
      "name": "withdraw",
      "outputs": [],
      "stateMutability": "nonpayable",
      "type": "function"
    }
  ],
  "transactionHash": "0x274e7161556e78414267e0f437dc678aadda9dcfbb7a2604db2ef1a957696e79",
  "args": [
    "0x5FbDB2315678afecb367f032d93F642f64180aa3"
  ],
  "numDeployments": 1,
  "solcInputHash": "f8649d2f06aa28fb9eaac1e8fa2b91f8",
  "bytecode": "0x60a0604052604051620013e4380380620013e4833981810160405281019062000029919062000112565b3373ffffffffffffffffffffffffffffffffffffffff1660808173ffffffffffffffffffffffffffffffffffffffff1660601b8152505080600260006101000a81548173ffffffffffffffffffffffffffffffffffffffff021916908373ffffffffffffffffffffffffffffffffffffffff1602179055505062000144565b600080fd5b600073ffffffffffffffffffffffffffffffffffffffff82169050919050565b6000620000da82620000ad565b9050919050565b620000ec81620000cd565b8114620000f857600080fd5b50565b6000815190506200010c81620000e1565b92915050565b6000602082840312156200012b576200012a620000a8565b5b60006200013b84828501620000fb565b91505092915050565b60805160601c61126c62000178600039600081816102040152818161054e015281816107440152610815015261126c6000f3fe6080604052600436106100865760003560e01c80636b69a592116100595780636b69a59214610114578063741bef1a1461013f578063893d20e81461016a578063b60d428814610195578063dc0d3dff1461019f57610086565b80630ec3b0271461008b5780633ccfd60b146100b65780633e47d6f3146100cd578063582b10341461010a575b600080fd5b34801561009757600080fd5b506100a06101dc565b6040516100ad9190610baa565b60405180910390f35b3480156100c257600080fd5b506100cb610202565b005b3480156100d957600080fd5b506100f460048036038101906100ef9190610c08565b610503565b6040516101019190610c4e565b60405180910390f35b61011261054c565b005b34801561012057600080fd5b506101296107da565b6040516101369190610c4e565b60405180910390f35b34801561014b57600080fd5b506101546107e7565b6040516101619190610baa565b60405180910390f35b34801561017657600080fd5b5061017f610811565b60405161018c9190610c78565b60405180910390f35b61019d610839565b005b3480156101ab57600080fd5b506101c660048036038101906101c19190610cbf565b610961565b6040516101d39190610c78565b60405180910390f35b600260009054906101000a900473ffffffffffffffffffffffffffffffffffffffff1681565b7f000000000000000000000000000000000000000000000000000000000000000073ffffffffffffffffffffffffffffffffffffffff163373ffffffffffffffffffffffffffffffffffffffff1614610287576040517f579610db00000000000000000000000000000000000000000000000000000000815260040160405180910390fd5b60005b6000805490508110156103325760008082815481106102ac576102ab610cec565b5b9060005260206000200160009054906101000a900473ffffffffffffffffffffffffffffffffffffffff1690506000600160008373ffffffffffffffffffffffffffffffffffffffff1673ffffffffffffffffffffffffffffffffffffffff1681526020019081526020016000208190555050808061032a90610d4a565b91505061028a565b50600067ffffffffffffffff81111561034e5761034d610d93565b5b60405190808252806020026020018201604052801561037c5781602001602082028036833780820191505090505b5060009080519060200190610392929190610a84565b503373ffffffffffffffffffffffffffffffffffffffff166108fc479081150290604051600060405180830381858888f193505050501580156103d9573d6000803e3d6000fd5b5060003373ffffffffffffffffffffffffffffffffffffffff166108fc479081150290604051600060405180830381858888f19350505050905080610453576040517f08c379a000000000000000000000000000000000000000000000000000000000815260040161044a90610e1f565b60405180910390fd5b60003373ffffffffffffffffffffffffffffffffffffffff164760405161047990610e70565b60006040518083038185875af1925050503d80600081146104b6576040519150601f19603f3d011682016040523d82523d6000602084013e6104bb565b606091505b50509050806104ff576040517f08c379a00000000000000000000000000000000000000000000000000000000081526004016104f690610ed1565b60405180910390fd5b5050565b6000600160008373ffffffffffffffffffffffffffffffffffffffff1673ffffffffffffffffffffffffffffffffffffffff168152602001908152602001600020549050919050565b7f000000000000000000000000000000000000000000000000000000000000000073ffffffffffffffffffffffffffffffffffffffff163373ffffffffffffffffffffffffffffffffffffffff16146105d1576040517f579610db00000000000000000000000000000000000000000000000000000000815260040160405180910390fd5b60008080548060200260200160405190810160405280929190818152602001828054801561065457602002820191906000526020600020905b8160009054906101000a900473ffffffffffffffffffffffffffffffffffffffff1673ffffffffffffffffffffffffffffffffffffffff168152602001906001019080831161060a575b5050505050905060005b81518110156106df57600082828151811061067c5761067b610cec565b5b602002602001015190506000600160008373ffffffffffffffffffffffffffffffffffffffff1673ffffffffffffffffffffffffffffffffffffffff168152602001908152602001600020819055505080806106d790610d4a565b91505061065e565b50600067ffffffffffffffff8111156106fb576106fa610d93565b5b6040519080825280602002602001820160405280156107295781602001602082028036833780820191505090505b506000908051906020019061073f929190610a84565b5060007f000000000000000000000000000000000000000000000000000000000000000073ffffffffffffffffffffffffffffffffffffffff164760405161078690610e70565b60006040518083038185875af1925050503d80600081146107c3576040519150601f19603f3d011682016040523d82523d6000602084013e6107c8565b606091505b50509050806107d657600080fd5b5050565b6802b5e3af16b188000081565b6000600260009054906101000a900473ffffffffffffffffffffffffffffffffffffffff16905090565b60007f0000000000000000000000000000000000000000000000000000000000000000905090565b6802b5e3af16b1880000610878600260009054906101000a900473ffffffffffffffffffffffffffffffffffffffff16346109a890919063ffffffff16565b116108b8576040517f08c379a00000000000000000000000000000000000000000000000000000000081526004016108af90610f3d565b60405180910390fd5b6000339080600181540180825580915050600190039060005260206000200160009091909190916101000a81548173ffffffffffffffffffffffffffffffffffffffff021916908373ffffffffffffffffffffffffffffffffffffffff16021790555034600160003373ffffffffffffffffffffffffffffffffffffffff1673ffffffffffffffffffffffffffffffffffffffff16815260200190815260200160002081905550565b600080828154811061097657610975610cec565b5b9060005260206000200160009054906101000a900473ffffffffffffffffffffffffffffffffffffffff169050919050565b6000806109b4836109e4565b90506000670de0b6b3a764000085836109cd9190610f5d565b6109d79190610fe6565b9050809250505092915050565b6000808273ffffffffffffffffffffffffffffffffffffffff1663feaf968c6040518163ffffffff1660e01b815260040160a06040518083038186803b158015610a2d57600080fd5b505afa158015610a41573d6000803e3d6000fd5b505050506040513d601f19601f82011682018060405250810190610a6591906110a4565b5050509150506402540be40081610a7c919061111f565b915050919050565b828054828255906000526020600020908101928215610afd579160200282015b82811115610afc5782518260006101000a81548173ffffffffffffffffffffffffffffffffffffffff021916908373ffffffffffffffffffffffffffffffffffffffff16021790555091602001919060010190610aa4565b5b509050610b0a9190610b0e565b5090565b5b80821115610b27576000816000905550600101610b0f565b5090565b600073ffffffffffffffffffffffffffffffffffffffff82169050919050565b6000819050919050565b6000610b70610b6b610b6684610b2b565b610b4b565b610b2b565b9050919050565b6000610b8282610b55565b9050919050565b6000610b9482610b77565b9050919050565b610ba481610b89565b82525050565b6000602082019050610bbf6000830184610b9b565b92915050565b600080fd5b6000610bd582610b2b565b9050919050565b610be581610bca565b8114610bf057600080fd5b50565b600081359050610c0281610bdc565b92915050565b600060208284031215610c1e57610c1d610bc5565b5b6000610c2c84828501610bf3565b91505092915050565b6000819050919050565b610c4881610c35565b82525050565b6000602082019050610c636000830184610c3f565b92915050565b610c7281610bca565b82525050565b6000602082019050610c8d6000830184610c69565b92915050565b610c9c81610c35565b8114610ca757600080fd5b50565b600081359050610cb981610c93565b92915050565b600060208284031215610cd557610cd4610bc5565b5b6000610ce384828501610caa565b91505092915050565b7f4e487b7100000000000000000000000000000000000000000000000000000000600052603260045260246000fd5b7f4e487b7100000000000000000000000000000000000000000000000000000000600052601160045260246000fd5b6000610d5582610c35565b91507fffffffffffffffffffffffffffffffffffffffffffffffffffffffffffffffff821415610d8857610d87610d1b565b5b600182019050919050565b7f4e487b7100000000000000000000000000000000000000000000000000000000600052604160045260246000fd5b600082825260208201905092915050565b7f53656e64204661696c6564000000000000000000000000000000000000000000600082015250565b6000610e09600b83610dc2565b9150610e1482610dd3565b602082019050919050565b60006020820190508181036000830152610e3881610dfc565b9050919050565b600081905092915050565b50565b6000610e5a600083610e3f565b9150610e6582610e4a565b600082019050919050565b6000610e7b82610e4d565b9150819050919050565b7f43616c6c206661696c6564000000000000000000000000000000000000000000600082015250565b6000610ebb600b83610dc2565b9150610ec682610e85565b602082019050919050565b60006020820190508181036000830152610eea81610eae565b9050919050565b7f4469646e27742073656e6420656e6f7567682100000000000000000000000000600082015250565b6000610f27601383610dc2565b9150610f3282610ef1565b602082019050919050565b60006020820190508181036000830152610f5681610f1a565b9050919050565b6000610f6882610c35565b9150610f7383610c35565b9250817fffffffffffffffffffffffffffffffffffffffffffffffffffffffffffffffff0483118215151615610fac57610fab610d1b565b5b828202905092915050565b7f4e487b7100000000000000000000000000000000000000000000000000000000600052601260045260246000fd5b6000610ff182610c35565b9150610ffc83610c35565b92508261100c5761100b610fb7565b5b828204905092915050565b600069ffffffffffffffffffff82169050919050565b61103681611017565b811461104157600080fd5b50565b6000815190506110538161102d565b92915050565b6000819050919050565b61106c81611059565b811461107757600080fd5b50565b60008151905061108981611063565b92915050565b60008151905061109e81610c93565b92915050565b600080600080600060a086880312156110c0576110bf610bc5565b5b60006110ce88828901611044565b95505060206110df8882890161107a565b94505060406110f08882890161108f565b93505060606111018882890161108f565b925050608061111288828901611044565b9150509295509295909350565b600061112a82611059565b915061113583611059565b9250827f7fffffffffffffffffffffffffffffffffffffffffffffffffffffffffffffff048211600084136000841316161561117457611173610d1b565b5b817f800000000000000000000000000000000000000000000000000000000000000005831260008412600084131616156111b1576111b0610d1b565b5b827f800000000000000000000000000000000000000000000000000000000000000005821260008413600084121616156111ee576111ed610d1b565b5b827f7fffffffffffffffffffffffffffffffffffffffffffffffffffffffffffffff058212600084126000841216161561122b5761122a610d1b565b5b82820290509291505056fea26469706673582212207ad7bb1d510d10aeeed89c486c3961f7a46425d76d18629c99e29080428a8acb64736f6c63430008080033",
  "devdoc": {
    "author": "Patrick Collins",
    "details": "This impliments price feeds as out library",
    "kind": "dev",
    "methods": {},
    "title": "A contract for crowd funding",
    "version": 1
  },
  "userdoc": {
    "kind": "user",
    "methods": {},
    "notice": "This contract is to dfemo a sample funding contract",
    "version": 1
  },
  "storageLayout": {
    "storage": [
      {
        "astId": 63,
        "contract": "contracts/FundMe.sol:FundMe",
        "label": "s_funders",
        "offset": 0,
        "slot": "0",
        "type": "t_array(t_address)dyn_storage"
      },
      {
        "astId": 67,
        "contract": "contracts/FundMe.sol:FundMe",
        "label": "s_addressToAmountFunded",
        "offset": 0,
        "slot": "1",
        "type": "t_mapping(t_address,t_uint256)"
      },
      {
        "astId": 72,
        "contract": "contracts/FundMe.sol:FundMe",
        "label": "s_priceFeed",
        "offset": 0,
        "slot": "2",
        "type": "t_contract(AggregatorV3Interface)45"
      }
    ],
    "types": {
      "t_address": {
        "encoding": "inplace",
        "label": "address",
        "numberOfBytes": "20"
      },
      "t_array(t_address)dyn_storage": {
        "base": "t_address",
        "encoding": "dynamic_array",
        "label": "address[]",
        "numberOfBytes": "32"
      },
      "t_contract(AggregatorV3Interface)45": {
        "encoding": "inplace",
        "label": "contract AggregatorV3Interface",
        "numberOfBytes": "20"
      },
      "t_mapping(t_address,t_uint256)": {
        "encoding": "mapping",
        "key": "t_address",
        "label": "mapping(address => uint256)",
        "numberOfBytes": "32",
        "value": "t_uint256"
      },
      "t_uint256": {
        "encoding": "inplace",
        "label": "uint256",
        "numberOfBytes": "32"
      }
    }
  }
}